:020000040000FA
:1000000068200020150200001D0200001F020000F1
:100010002102000023020000250200000000000071
:1000200000000000000000000000000027020000A7
:1000300029020000000000002B0200002D02000039
:100040002F0200002F020000C50600002F02000052
:100050002F0200002F0200002F0200002F020000DC
:100060002F0200002F0200002F0200002F020000CC
:100070002F0200002F0200002F0200002F020000BC
:100080002F0200002F0200002F0200002F020000AC
:100090002F0200002F0200002F0200002F0200009C
:1000A0002F0200002F0200002F0200002F0200008C
:1000B0002F0200002F0200000000000000000000DE
:1000C0002F0200002F0200002F0200002F0200006C
:1000D0002F0200002F0200002F020000000000008D
:1000E0000000000000000000000000000000000010
:1000F0000000000000000000000000000000000000
:1001000000000000000000000000000000000000EF
:1001100000000000000000000000000000000000DF
:1001200000000000000000000000000000000000CF
:1001300000000000000000000000000000000000BF
:1001400000000000000000000000000000000000AF
:10015000000000000000000000000000000000009F
:10016000000000000000000000000000000000008F
:10017000000000000000000000000000000000007F
:10018000000000000000000000000000000000006F
:10019000000000000000000000000000000000005F
:1001A000000000000000000000000000000000004F
:1001B000000000000000000000000000000000003F
:1001C000000000000000000000000000000000002F
:1001D000000000000000000000000000000000001F
:1001E000000000000000000000000000000000000F
:1001F00000000000000000000000000000000000FF
:10020000DFF80CD000F07EF800480047B90A000083
:10021000682000200648804706480047FEE7FEE7C2
:10022000FEE7FEE7FEE7FEE7FEE7FEE7FEE7FEE7A6
:10023000ED0300000102000040EA01039B0703D028
:1002400009E008C9121F08C0042AFAD203E011F815
:10025000013B00F8013B521EF9D2704730B505460C
:100260000020034600E05B1C934205D2EC5CC85CB6
:10027000201A01D1002CF6D130BD70B5064600F031
:100280002FFA046805460A220021304600F002F8E1
:100290002C6070BD2DE9F04791460F46804604461C
:1002A000002614F8015B2DB100F03EF80068405DB7
:1002B000C007F6D12B2D02D02D2D18D0641E4A4632
:1002C0003946204600F034F827B13968A14201D1FF
:1002D000C7F8008071054FF002040BD5404200289A
:1002E00003DD00F0FDF90460A007BDE8F08746F4E7
:1002F0008066E4E70028F8DA00F0F2F904606FF0B5
:100300000040F2E7064C074D06E0E06840F00103CC
:1003100094E8070098471034AC42F6D3FFF774FF17
:100320006818000088180000004870476418000032
:100330002DE9F05F82460078002715468B460AF1CA
:100340000104B946302801D09DB113E014F8010B27
:100350000127782803D0582801D045B10AE00DB113
:10036000102D07D10027102514F8010B02E00825F5
:1003700000E00A250026B0460EE005FB080005FB5C
:1003800006F1012701EB10461FFA80F8B6F5803F11
:1003900000D3B94614F8010B294600F018F80028DC
:1003A000EBDABBF1000F05D00FB1641E00E054463C
:1003B000CBF80040B9F1000F06D000F091F902210E
:1003C0000160C81EBDE8F09F48EA0640FAE73A28F7
:1003D00000D2303820F02002412A01D3A2F13700A8
:1003E000884201D34FF0FF3070470000F0B5A449B8
:1003F000A4484FF080540B68D4F830210078D4F82A
:100400003411551CC0F3031006D094460127002672
:10041000BCF1060F03D00AE003F0FF0CF6E7B4F8D6
:100420002453DFF864C2C5F30425CCF80050DDB2D4
:10043000062D06D1032804D1DFF854C2934DCCF821
:100440007450551C04D09446BCF1060F03D00AE04A
:1004500003F0FF0CF8E7D4F84452DFF838C2C5F3D4
:100460004235CCF80050DDB2062D08D1032806D164
:10047000894DD5F800C02CF0807CC5F800C0551C13
:1004800004D09446BCF1060F03D00BE003F0FF0C40
:10049000F8E74FF08045C5F80C61C5F810617D4D57
:1004A0002D1F2E60DDB2062D08D1032806D1DFF8FE
:1004B000E4C103250CF1640CCCF80050DDB2062D2C
:1004C00010D103280ED1DFF8D4C10525CCF8005097
:1004D000724D78352F60714D08352E600CF1040691
:1004E0003F253560551C04D016460D46062E03D018
:1004F0005BE0DEB20546F9E7ED1E012D55D9684DEA
:100500002D68684E3560664D2D1D2D68361D356091
:10051000634D08352D68361D3560614D0C352D68ED
:10052000361D35605E4D10352D68361D35605C4DCD
:1005300014352D68361D3560594D18352D68594EC6
:1005400020363560564D1C352D68361D3560544DAE
:1005500020352D68361D3560514D24352D68361DEA
:1005600035604F4D28352D68361D35604C4D2C3586
:100570002D68361D35604A4D30352D68494E403660
:100580003560474D34352D68361D3560444D38355E
:100590002D68361D3560424D3C352D68361D356061
:1005A0003F4D40352D68361D3560551C03D016462D
:1005B000062E02D007E0DEB2FAE7D4F858523A4EDF
:1005C00005F04F053560551C03D01346062B02D0AD
:1005D00008E0DBB2FAE735480368DB0702D06FF0CA
:1005E00001030360062A07D1C91E022904D9304835
:1005F000016841F48061016027487438016841F462
:1006000070010160BFF34F8FBFF36F8FD4E94C10BF
:100610004FF01022062907D1C01E032804D9D2F8B2
:1006200008021C491C310860D2F80002002803DBD4
:10063000D2F8040200281FDA012000F017FD15216E
:10064000C2F800121B480368002BFCD0C2F8041249
:1006500001680029FCD0002000F008FDBFF34F8F97
:100660000D48F0380168144A01F4E061114301605B
:10067000BFF34F8F00BFFDE7114910480860F0BD80
:10068000E00F00F0E80F00F0403501400DF0ADBA8A
:1006900000C007403C050040FCED00E01056004063
:1006A0000404001020C50040E40E00400004004097
:1006B0003C17004000E401400400FA050090D0031C
:1006C000200000200448017F04480029024901D08D
:1006D00000F0EEBF00F0ECBE28100020002000402B
:1006E000004870472400002002E008C8121F08C11B
:1006F000002AFAD170477047002001E001C1121FA3
:10070000002AFBD170470000BFF34F8F05480168F6
:10071000054A01F4E06111430160BFF34F8F00BF50
:10072000FDE700000CED00E00400FA050EB5002125
:100730000091CDE901106A4644F20100FFF7E4FFA1
:100740000EBDC16881600020704710B58268C36823
:10075000934203D000F061F9002010BD052010BDC8
:1007600029B112B1531E134203D0092070470E2045
:1007700070470160838000218160C1600846704736
:1007800010B58268C3689A1A83889A4203D800F029
:100790004EF9002010BD042010BD000010B5064821
:1007A000FFF7CFFF002805D10348BDE81040103007
:1007B000FFF7C7BF10BD00004810002070B50A4EFB
:1007C00001460A48B578FFF7C0FF04464DB1002046
:1007D000B070711C0122C81D00F03CFA08B1FFF78F
:1007E000A5FF204670BD000010000020481000202A
:1007F000F0B5284E89B01F460D00044672603BD00C
:10080000A888296882B22448FFF7AAFF002834D1BB
:10081000A889A96882B220481030FFF7A1FF0028FC
:100820002BD120221D496846FFF706FD606906901E
:10083000207C00B101208DF814008DF81C70607CC4
:1008400000B10E208DF81500E0680290A0680390BA
:1008500020680190606800900E48114A694608308F
:1008600000F0C4F9002808D1B0702068401C04D002
:100870009DF81D0018B106E0072009B0F0BD05483D
:10088000083000F03FFA03490122491CC81D00F05E
:10089000E1F9F2E71000002048100020C017000026
:1008A0003112000010B501460B48FFF769FF040044
:1008B00010D10A4800F070FB60B9084906480839B1
:1008C000FFF743FF30B9054901220839034800F01A
:1008D000DDFA0446204610BD581000201800002004
:1008E0002DE9F041064608680C46411C4FF0A04730
:1008F0004FF0010506D005FA00F1C7F80815206889
:1009000000F083FB6068411C02D0002100F074FB02
:100910003079204901EB4010A169007F0028306840
:10092000C0F8241525D0607D227D31681043C1F8C0
:100930006C05D4E900123068C0F80C15C0F8142515
:1009400024E0A068411C02D0002100F055FBE068C3
:10095000411C05D08540C7F80855E06800F055FBFC
:10096000D4E902123068C0F80825C0F81015BDE8B7
:10097000F081607D217D32680843C2F86C05D4E9BE
:1009800000123068C0F81425C0F80C15207D01282D
:10099000D7D0ECE72810002007490B5C4FF0A041AE
:1009A000D1F804250120984020EA0203C1F8083557
:1009B0001040C1F80C057047B81700000249085CE8
:1009C000012100F02CBB0000B81700000249085CB0
:1009D000002100F024BB0000B81700007CB5002403
:1009E000084E25460122305D0095002311460195F1
:1009F00000F0DEFA641C042CF4D3BDE87C4000F067
:100A000003B80000B817000010B500242046FFF717
:100A1000D5FF641C042CF9D310BD826883881A406A
:100A200003689A5C0A708168491C81607047C268DB
:100A300083881A4003689954C168491CC160704793
:100A400070B50E460446007918494FF4A27501EBC3
:100A50004010017F2068A1B14FF4887100F000FBC5
:100A60004FF49071206800F0FBFA4FF49271206807
:100A700000F0F6FA2946206800F0F2FA0C492068E6
:100A800009E04FF48E7100F0DAFA2946206800F090
:100A9000D6FA08492068C0F80413206800F09AF8D4
:100AA0003146BDE8704000F077B800002810002003
:100AB00010030200800002008AB0FFF78FFF1822A7
:100AC0000E496846FFF7B8FB0D4806900D494FF4F4
:100AD0000060CDE90701099007230B4A06A9684683
:100AE000FFF786FE08B1FFF721FEFFF757FE00F083
:100AF000C9FA00BF00F06CFDFCE70000A017000081
:100B000028000020280800201D12000000283ED0E8
:100B10001F49204A096800BF00BF00BF00BF00BFD7
:100B200000BF00BF00BF91422FD000BF00BF00BF79
:100B300000BF00BF00BF00BF00BF00BF00BF00BFBD
:100B400000BF00BF00BF00BF00BF00BF00BF00BFAD
:100B500000BF00BF00BF00BF00BF00BF00BF00BF9D
:100B600000BF00BF00BF00BF00BF00BF00BF00BF8D
:100B700000BF00BF00BF00BF00BF00BF00BF00BF7D
:100B800000BF00BF00BF00BF00BF401EC3D1704701
:100B9000200000200024F40049070B0E00F01F0283
:100BA000012191404209920002F1E022002804DB79
:100BB00000F1E02080F8003405E000F00F0000F1C3
:100BC000E02080F8143D01DBC2F8801201DBC2F89E
:100BD00000117047000B40B270470121B1EB507F0C
:100BE00001D1012070470020704700002DE9F0413D
:100BF00005460079164F904607EB40140E46E07EFE
:100C000010B10820BDE8F081707F20772846FFF7FB
:100C100067FE5FEA080060603169216003D0317FC0
:100C20002846FFF70DFF287907EB4010007F0028CA
:100C3000286801D0082100E00421C0F80015002038
:100C4000E0752076A0750121E176A076DAE7000054
:100C5000281000202DE9F04105460079284E9046E5
:100C600006EB40140F46207F18B10846FFF7B5FF8A
:100C700080B1626800234FF404704FF4017172B1C7
:100C80002A7906EB4212127F002A2A6805D0C2F8A0
:100C9000080304E01020BDE8F081C2F80813E27DEB
:100CA000B2B1227E7AB162685AB12A7906EB421259
:100CB000127F1AB12968C1F8040302E02868C0F85D
:100CC00004131120E7E72761012384F8188005E069
:100CD00084F817800020E760607620762879424605
:100CE00006EB40103946007F0028284603D0BDE8B7
:100CF000F04100F073B8BDE8F04100F01BB800000F
:100D00002810002070B504460079094D05EB40100D
:100D1000017F00290AD1807E002807D1204600F0FB
:100D200030FA2179012005EB4111887670BD000071
:100D3000281000202DE9F05F04460079264901EBD8
:100D40004015A87E184302D1204600F01AFA6868C0
:100D50000028206806D04FF40171C0F80413002069
:100D6000BDE8F09F4FF4A276314600F068F9B14635
:100D70004FF4927A4FF4847B5146206800F05AF980
:100D800006465946206800F055F9804649462068D5
:100D900000F050F9074648EA07003043ECD056EA25
:100DA000070007D12946206800F0C6F9E87D697E72
:100DB0008842E1D80020E8750EB10320D0E70FB1DA
:100DC0000F20CDE7A97E01200029216801D008600D
:100DD000C5E74860C3E70000281000202DE9F05F58
:100DE000894604464FF488759A4690460026006866
:100DF000294600F035F94FF4A2773946206800F013
:100E00002FF92068C0F83495C0F838852068BAF109
:100E1000000F14D0D0F8001241F02001C0F80012E9
:100E20002179DFF8648008EB4110406850B12068F8
:100E30004FF40471C0F804133046BDE8F09F01215F
:100E40000160EDE7AA46B9464FF4927B514620680F
:100E500000F001F907464946206800F0FCF8054615
:100E60005946206800F0F7F8014647EA05000843B4
:100E7000ECD02379002208EB4310C27501B10326A0
:100E8000002DD9D00F26D7E7281000202DE9F047F4
:100E9000054600793F4E904606EB40140F46207FF2
:100EA00018B10846FFF799FE30B1284600F074F8F3
:100EB00020B11120BDE8F0871020FBE784F81680F0
:100EC000A7600027A78228794FF0010806EB40149D
:100ED0003E46207F0028286825D04FF49079494667
:100EE00000F0BEF84FF4AC7A5146286800F0B8F82C
:100EF0002868A17DA268C0F84425C0F84815286874
:100F0000C0F808806068F0B94946286800F0A3F886
:100F100080465146286800F09EF858EA0001F3D058
:100F200058BBA7750FE04FF48E7A514600F087F852
:100F30002868C0F808802146286800F051F96168E7
:100F40004FF4807089B13046B4E75146286800F00C
:100F500071F810B9A08A4845F7D1A08A484505D054
:100F60002146286800F03CF900E08146A08AA17D76
:100F70008842EAD3A08A484501D10F26D1E75146DD
:100F8000286800F057F80028F9D02868C0F80C80CD
:100F9000C7E70000281000200079044901EB401049
:100FA000807D002800D0012070470000281000201C
:100FB00070B541EA4201DDE904564FF0A04441EA30
:100FC000830141EA052104EB800041EA0641C0F8B3
:100FD000001770BD70B541EA4201DDE904564FF0DB
:100FE000A04441EA830141EA052104EB800041EA83
:100FF0000641C0F8001770BD1CB500220B460092D8
:1010000011460192FFF7E6FF1CBD1CB500210091BF
:101010000B46012201911146FFF7DCFF1CBD0122A6
:101020004FF0A043824011B1C3F808257047C3F8C0
:101030000C2570474058002800D00120704708B5A3
:10104000002242504058009008BDD0F804030840E8
:1010500000D0012070474058002800D00120704780
:1010600008B5002242504058009008BD034908606E
:10107000034801680029FCD07047000004E50140E6
:1010800000E40140094901200860094A0321C2F82F
:1010900000124FF0E0220221C2F80011810708601F
:1010A000D1F800010028FBD070470000FC1F004071
:1010B000001000401349282801D3283801E040F4EB
:1010C0008070086010490122C1F80420D1F80001A5
:1010D0000028FBD00023C1F800314A61D1F81C017F
:1010E0000028FBD0C1F81C310648403000680A6176
:1010F00000F07F00D1F81021002AFBD0C1F8103198
:10110000704700000815004000100040F0B57F2433
:1011100007460025074E07E03846FFF7CBFFA04201
:1011200000D3204604466D1CF0688542F4D9204661
:10113000F0BD00000000002070B50546C87D0C46DB
:1011400000284FF4847128460AD0FFF778FFD5F8BD
:101150001805627EE1688854607E401C607670BD30
:10116000FFF76DFFD5F8180570BD1FB501238DF889
:1011700000308DF808100192D0E9001268469047BF
:101180001FBD10B5044600684FF49271FFF757FF7A
:101190004FF484712068FFF752FF2068012101603D
:1011A00010BD000070B5074D28712C7805E07F2137
:1011B000204600F06FFA641CE4B268788442F6D9E5
:1011C00070BD00000000002004490028C8704FF0E6
:1011D000010001D0FFF7FABBFFF7F0BB00000020D1
:1011E00070B50C4605464FF48E71FFF728FFA18AB3
:1011F000A068415CA08A401CA082C5F81C1570BD87
:101200001FB500228DF800208DF80810816801912B
:101210008275D0E90012684690471FBD0178022907
:1012200001D0012902D14068FFF780BA7047000061
:101230007CB50178244D81B301290BD002292BD133
:101240008DF80010C068691C01900122C81DFFF7CD
:1012500001FD2EE0406801781C48FFF791FA1B4C15
:10126000012618B18DF80060019006E0A068E168E1
:10127000814205D000208DF80000696868468847E3
:10128000A068E168081AA188884207D80E4901229F
:10129000491CC81DFFF7DEFC7CBD01E0AE70FBE71A
:1012A0000A4809491030FFF750FA30B103208DF891
:1012B0000000696868468847EEE70349012201F1AA
:1012C0000800FFF7E3FDE7E71000002048100020CA
:1012D00070B590B06C462046FFF770FA002838D100
:1012E0006D4604E0641C2046FFF768FA30B92078A8
:1012F0000D2803D010B1601B4028F3DB6C4604229C
:1013000050A12046FEF7AAFF504D20B3052250A160
:101310002046FEF7A3FF00287BD004224EA12046E2
:10132000FEF79CFF002875D009224DA12046FEF74C
:1013300095FF002871D003224CA12046FEF78EFFB6
:10134000002806D1687980F0010068710020FFF75D
:1013500035FB10B070BD241D062245A12046FEF7C6
:101360007DFFD8B1072244A12046FEF777FF18B3CE
:101370000C2243A12046FEF771FF04AE40B30C22BD
:1013800043A12046FEF76AFF0028E2D13046FEF76F
:1013900074FF2830A7282EDA02462DE0A01DFEF7A4
:1013A0006CFF4FF47A71884204DA052800DC0520CE
:1013B000A860CEE70846FBE7E01DFEF75EFF642865
:1013C00004DA012800DC0120E860C2E76420FBE7C2
:1013D0003046FEF752FF69782830884201DA02462B
:1013E00000E00A46002A03DD884202DB084600E0EE
:1013F00000202870ADE7A72229788A4206DDA728B9
:1014000005DBA72003E004E004E006E0084668707E
:101410009FE70120FFF7D8FE9BE70934042220A1B3
:101420002046FEF71BFF50B105221FA12046FEF704
:1014300015FF00288DD100BFFFF7B4FE89E701201A
:10144000FAE700007365742000000000000000202F
:10145000737461727400000073746F700000000098
:101460007363616E20616476200000006C65640027
:1014700064656C617920000072657065617420009C
:101480006368616E6E656C206D696E2000000000FF
:101490006368616E6E656C206D61782000000000ED
:1014A000747275650000000066616C736500000071
:1014B0002DE9FF470C4605464FF40071FFF7C5FDC7
:1014C00001274FF40178002618B34FF4927949466A
:1014D0002846FFF7AFFDE0B149462846FFF7AFFDCC
:1014E000C5F80883A07E00B96F6002208DF8000067
:1014F000D5F88004C5F880040390E07D8DF80800DD
:10150000E0680190E6752676D4E9001268469047B7
:1015100027E004212846FFF798FD10B34FF48471AB
:101520002846FFF787FDE0B121462846FFF704FE75
:10153000E07D617E884214D1207E38B1617EE26810
:10154000E0752069E0602676667607E0A07E00B947
:101550006F60C5F80883E675617EE2682046FFF794
:1015600004FE4FF48E7841462846FFF763FD88B1AC
:10157000A08AA17D884204D221462846FFF730FE8A
:1015800008E041462846FFF75AFDA17D11B12046EB
:10159000FFF736FE4FF4A27841462846FFF74AFD92
:1015A000002812D041462846FFF749FDA07E00B131
:1015B0002F60E07D002808D0E675617EE26804B007
:1015C0002046BDE8F047FFF7D0BDBDE8FF8700002B
:1015D00070B5244C2079A8B12A20FFF797FD014669
:1015E0002A2000F057F84220FFF790FD01464220E4
:1015F00000F050F87820FFF789FD0146782000F0D0
:1016000049F80DE0257808E02846FFF77FFD014600
:10161000284600F03FF86D1CEDB260788542F3D9A2
:10162000FFF756FE607910B10020FFF7B5F9A078FA
:1016300078B1A0684FF4FA71884200D208464FF49E
:101640007A714843FFF762FA0020A070E078FFF754
:10165000BBFDA068BDE870404FF47A714843FFF7C6
:1016600055BA00000000002010B5094CE178A278BE
:1016700091430BD0FFF716F900B10120A0700028AC
:1016800004D0BDE810400120FFF798B910BD00005C
:101690000000002070B504460D46FF20FFF7E4FF70
:1016A0002046FFF7E1FF2846BDE87040FFF7DCBFAA
:1016B0002DE9FF410C464FF4927705463946FFF776
:1016C000CAFC0026C0B139462846FFF7C9FC0220F3
:1016D0008DF80000D5F88004C5F880040390D5F893
:1016E0003C058DF80800E0680190E6752676D4E99F
:1016F00000126846904724E04FF488773946284620
:10170000FFF7A9FCE8B139462846FFF7A9FCD5F850
:101710003C05C1B2E07D884213D1207E60B1E26811
:10172000D5F8000220F02000C5F80002207EE07508
:101730002069E060267601E0E675E2682046FFF762
:1017400014FD4FF4A27739462846FFF784FC68B1B0
:1017500039462846FFF784FCE07D38B1E675D5F8B8
:101760003C05E268C1B22046FFF7FFFC4FF49076DB
:1017700031462846FFF76FFC00280FD03146284637
:10178000FFF76EFCA07D002808D0D5F84C0504B00A
:10179000C1B22046BDE8F041FFF732BDBDE8FF8190
:1017A000080000000600000005000000070000001F
:1017B0000000000000E0D701111213140D0E0F10ED
:1017C000FFFFFFFFFFFFFFFFFFFFFFFFFFFFFFFF29
:1017D00000000000000000000000D601070100002A
:1017E0000040404040404040404041414141414034
:1017F00040404040404040404040404040404040E9
:101800004005020202020202020202020202020277
:10181000022020202020202020202002020202027C
:1018200002029090909090901010101010101010D4
:1018300010101010101010101010101002020202E0
:101840000202888888888888080808080808080824
:101850000808080808080808080808080202020220
:1018600040000000E11700001020000000000020F0
:1018700028000000E80600003820000028000020B2
:1018800040200000F80600000000000000000000FA
:101890000000000000000000000000000000000048
:1018A0000000000000000000000000000000000038
:1018B0000000000000000000000000000000000028
:1018C0000000000000000000000000000000000018
:10200000727373692D66772D312E31302E310000B9
:1020100000A7000000010000E8030000010000002C
:102020000000000000000000002000400000000050
:082030000090D0030000000045
:0400000500000201F4
:00000001FF
