:020000040000FA
:10200000727373692D66772D312E31302E310000B9
:1020100068088000252200002D2200002F220000E9
:1020200031220000332200003522000000000000B1
:102030000000000000000000000000003722000047
:1020400039220000000000003B2200003D22000079
:102050003F2200003F2200003F2200003F220000FC
:102060003F220000000000003F2200003F2200004D
:102070003F2200003F2200003F2200003F220000DC
:102080003F2200003F2200003F2200003F220000CC
:102090003F2200003F2200003F220000000000001D
:1020A0003F2200003F2200003F2200003F220000AC
:1020B0003F2200003F22000000000000000000005E
:1020C0000000000000000000000000000000000010
:1020D0000000000000000000000000000000000000
:1020E00000000000000000000000000000000000F0
:1020F00000000000000000000000000000000000E0
:1021000000000000000000000000000000000000CF
:1021100000000000000000000000000000000000BF
:1021200000000000000000000000000000000000AF
:10213000000000000000000000000000000000009F
:10214000000000000000000000000000000000008F
:10215000000000000000000000000000000000007F
:10216000000000000000000000000000000000006F
:10217000000000000000000000000000000000005F
:10218000000000000000000000000000000000004F
:10219000000000000000000000000000000000003F
:1021A000000000000000000000000000000000002F
:1021B000000000000000000000000000000000001F
:1021C000000000000000000000000000000000000F
:1021D00000000000000000000000000000000000FF
:1021E00000000000000000000000000000000000EF
:1021F00000000000000000000000000000000000DF
:1022000000000000000000000000000000000000CE
:10221000DFF80CD000F07EF8004800470D2A0000DF
:10222000680880000648804706480047FEE7FEE74A
:10223000FEE7FEE7FEE7FEE7FEE7FEE7FEE7FEE776
:10224000FD2300001122000040EA01039B0703D098
:1022500009E008C9121F08C0042AFAD203E011F8E5
:10226000013B00F8013B521EF9D2704730B50546DC
:102270000020034600E05B1C934205D2EC5CC85C86
:10228000201A01D1002CF6D130BD70B5064600F001
:1022900011FA046805460A220021304600F002F8CF
:1022A0002C6070BD2DE9F04791460F4680460446EC
:1022B000002614F8015B2DB100F03EF80068405D87
:1022C000C007F6D12B2D02D02D2D18D0641E4A4602
:1022D0003946204600F034F827B13968A14201D1CF
:1022E000C7F8008071054FF002040BD5404200286A
:1022F00003DD00F0DFF90460A007BDE8F08746F4D5
:102300008066E4E70028F8DA00F0D4F904606FF0A2
:102310000040F2E7064C074D06E0E06840F001039C
:1023200094E8070098471034AC42F6D3FFF774FFE7
:102330000C3600003C3600000048704708360000AC
:102340002DE9F05F82460078002715468B460AF19A
:102350000104B946302801D09DB113E014F8010BF7
:102360000127782803D0582801D045B10AE00DB1E3
:10237000102D07D10027102514F8010B02E00825C5
:1023800000E00A250026B0460EE005FB080005FB2C
:1023900006F1012701EB10461FFA80F8B6F5803FE1
:1023A00000D3B94614F8010B294600F018F80028AC
:1023B000EBDABBF1000F05D00FB1641E00E054460C
:1023C000CBF80040B9F1000F06D000F073F90221FC
:1023D0000160C81EBDE8F09F48EA0640FAE73A28C7
:1023E00000D2303820F02002412A01D3A2F1370078
:1023F000884201D34FF0FF30704700002DE9F041D3
:102400009C4F4FF080549A4ED4F83011387833688E
:102410004A1CC0F3031000D1D9B200254FF00108C7
:10242000062905D1B4F82413934AC1F3042111609D
:10243000D9B2062904D1032802D191498F484867AF
:1024400000F040FB28B1D4F844028E49C0F342307A
:102450000860317838780629C0F3031006D10328C4
:1024600004D18948016821F08071016000F048FBC7
:1024700040B14FF08040C0F80C51C0F81051814875
:10248000001F056032683878D3B2C0F30310062B02
:1024900005D1032803D17B4B032164331960D1B2EA
:1024A00006290ED103280CD1784A052111607749FD
:1024B0007831C1F80080754808300560111D3F2053
:1024C000086000F03BFBE8B37148006871490860A0
:1024D0006F48001D0068091D08606D4808300068DD
:1024E000091D08606A480C300068091D08606848CA
:1024F00010300068091D0860654814300068091D27
:1025000008606348183000686249203108606048FC
:102510001C300068091D08605D4820300068091DF6
:1025200008605B4824300068091D0860584828305E
:102530000068091D086056482C300068091D0860B5
:10254000534800E018E030300068524940310860DC
:102550004F4834300068091D08604D483830006825
:10256000091D08604A483C300068091D0860484859
:1025700040300068091D0860D4F83011481C00D1B3
:102580003178454E062904D1D4F8580200F04F00A6
:10259000306000F079FA30B140480168C90702D0D4
:1025A0006FF001010160D4E94C10062907D1C21E69
:1025B000022A04D93A4A136843F4806313600F294E
:1025C00003D1306840F00F00306000F047FA4FF060
:1025D000102420B1D4F808022A491C31086000F008
:1025E0003DFA304AB8B1D4F80001401C03D0D4F809
:1025F0000401401C0FD1012000F050FDC4F800512F
:1026000010680028FCD0C4F8045110680028FCD0E1
:10261000002000F043FDD4F80002002803DBD4F8CA
:10262000040200281EDA012000F038FD1520C4F84D
:10263000000211680029FCD0C4F8040210680028C8
:10264000FCD0002000F02AFDBFF34F8F0E48F03879
:102650000168154A01F4E06111430160BFF34F8F37
:1026600000BFFDE7124911480860BDE8F081000095
:10267000E00F00F0E80F00F0403501400DF0ADBA7A
:1026800000C007403C050040FCED00E01056004053
:102690000404001020C50040E40E00400004004087
:1026A0003C17004000E401400400FA050090D0030C
:1026B00020008000004870472400800002E008C825
:1026C000121F08C1002AFAD170477047002001E0AC
:1026D00001C1121F002AFBD170470000BFF34F8FCA
:1026E00005480168054A01F4E06111430160BFF348
:1026F0004F8F00BFFDE700000CED00E00400FA057D
:102700000EB500210091CDE901106A4644F20100A6
:10271000FFF7E4FF0EBDC16881600020704710B56F
:102720008268C368934203D000F020F9002010BDF6
:10273000052010BD29B112B1531E134203D0092048
:1027400070470E2070470160838000218160C16066
:102750000846704710B58268C3689A1A83889A42FF
:1027600003D800F00DF9002010BD042010BD0000BA
:1027700010B50648FFF7CFFF002805D10348BDE894
:1027800010401030FFF7C7BF10BD000048008000A8
:1027900070B50A4E01460A48B578FFF7C0FF0446F7
:1027A0004DB10020B070711C0122C81D00F08CFAE0
:1027B00008B1FFF7A5FF204670BD000010008000A3
:1027C00048008000F0B5284E89B01F460D00044631
:1027D00072603BD0A888296882B22448FFF7AAFF1C
:1027E000002834D1A889A96882B220481030FFF7A8
:1027F000A1FF00282BD120221D496846FFF724FDA8
:1028000060690690207C00B101208DF814008DF8DD
:102810001C70607C00B10E208DF81500E0680290FD
:10282000A068039020680190606800900E48114AEB
:102830006946083000F014FA002808D1B07020680A
:10284000401C04D09DF81D0018B106E0072009B017
:10285000F0BD0548083000F08FFA03490122491CF9
:10286000C81D00F031FAF2E7100080004800800037
:10287000643500001532000010B501460B48FFF723
:1028800069FF040010D10A4800F0C0FB60B9084994
:1028900006480839FFF743FF30B9054901220839D6
:1028A000034800F02DFB0446204610BD5800800070
:1028B000180080002DE9F041064608680C46411CCE
:1028C0004FF0A0474FF0010506D005FA00F1C7F818
:1028D0000815206800F0C1FB6068411C02D000218F
:1028E00000F0B2FB3079204901EB4010A169007F74
:1028F00000283068C0F8241525D0607D227D31681D
:102900001043C1F86C05D4E900123068C0F80C150A
:10291000C0F8142524E0A068411C02D0002100F07A
:1029200093FBE068411C05D08540C7F80855E06876
:1029300000F093FBD4E902123068C0F80825C0F813
:102940001015BDE8F081607D217D32680843C2F832
:102950006C05D4E900123068C0F81425C0F80C15D5
:10296000207D0128D7D0ECE728008000826883888A
:102970001A4003689A5C0A708168491C816070473C
:10298000C26883881A4003689954C168491CC160B1
:102990007047000070B50E460446007918494FF4A0
:1029A000A27501EB4010017F2068A1B14FF488713E
:1029B00000F06DFB4FF49071206800F068FB4FF45D
:1029C0009271206800F063FB2946206800F05FFBED
:1029D0000C49206809E04FF48E7100F04DFB294648
:1029E000206800F049FB08492068C0F804132068FB
:1029F00000F02AF93146BDE8704000F007B9000048
:102A00002800800010030200800002008AB0182213
:102A10000E496846FFF718FC0D4806900D494FF423
:102A20000060CDE90701099007230B4A06A9684613
:102A3000FFF7C8FE08B1FFF763FEFFF799FE00F04D
:102A400039FB00BF00F020FDFCE700004C35000022
:102A50000000002000080020013200004FF08050EC
:102A6000D0E94C10062902D00F2904D009E0C01E7D
:102A7000032804D805E0002802D0012800D0012056
:102A800070470020704700004FF08050D0F83011A0
:102A90004A1C07D0D0F8340106290ED00F2909D0DE
:102AA0000020704706480178054808300078C0F3D8
:102AB0000310F1E708B10128F3D0012070470000AE
:102AC000E00F00F04FF08050D0F830114A1C07D0D2
:102AD000D0F8340106290ED00F2909D00020704704
:102AE00006480178054808300078C0F30310F1E784
:102AF00008B10128F3D0012070470000E00F00F07A
:102B00004FF08050D0F830114A1C07D0D0F8340173
:102B100006290ED00F2909D00020704706480178F9
:102B2000054808300078C0F30310F1E708B1012828
:102B3000F3D0012070470000E00F00F04FF080500C
:102B4000D0F830114A1C06D0D0F8340106290AD03A
:102B50000F290CD010E009480178084808300078A7
:102B6000C0F30310F2E7C01E012803D804E008B147
:102B7000012800D00120704700207047E00F00F0CE
:102B800000283ED01F49204A096800BF00BF00BF8F
:102B900000BF00BF00BF00BF00BF91422FD000BFE9
:102BA00000BF00BF00BF00BF00BF00BF00BF00BF2D
:102BB00000BF00BF00BF00BF00BF00BF00BF00BF1D
:102BC00000BF00BF00BF00BF00BF00BF00BF00BF0D
:102BD00000BF00BF00BF00BF00BF00BF00BF00BFFD
:102BE00000BF00BF00BF00BF00BF00BF00BF00BFED
:102BF00000BF00BF00BF00BF00BF00BF00BF401E3E
:102C0000C3D17047200080000024F40049070B0E58
:102C100000F01F02012191404209920002F1E022DE
:102C2000002804DB00F1E02080F8003405E000F02B
:102C30000F0000F1E02080F8143D01DBC2F88012A3
:102C400001DBC2F800117047000B40B27047012150
:102C5000B1EB507F01D10120704700207047000088
:102C60002DE9F04105460079164F904607EB4014D8
:102C70000E46E07E10B10820BDE8F081707F20771D
:102C80002846FFF717FE5FEA08006060316921609F
:102C900003D0317F2846FFF77DFE287907EB4010EF
:102CA000007F0028286801D0082100E00421C0F836
:102CB00000150020E0752076A0750121E176A07650
:102CC000DAE70000280080002DE9F0410546007990
:102CD000284E904606EB40140F46207F18B1084658
:102CE000FFF7B5FF80B1626800234FF404704FF422
:102CF000017172B12A7906EB4212127F002A2A680A
:102D000005D0C2F8080304E01020BDE8F081C2F845
:102D10000813E27DB2B1227E7AB162685AB12A7993
:102D200006EB4212127F1AB12968C1F8040302E0CF
:102D30002868C0F804131120E7E72761012384F80D
:102D4000188005E084F817800020E7606076207620
:102D50002879424606EB40103946007F0028284675
:102D600003D0BDE8F04100F073B8BDE8F04100F0D9
:102D70001BB800002800800070B504460079094D9A
:102D800005EB4010017F00290AD1807E002807D181
:102D9000204600F002FA2179012005EB41118876E6
:102DA00070BD0000280080002DE9F05F0446007926
:102DB000264901EB4015A87E184302D1204600F0B9
:102DC000ECF968680028206806D04FF40171C0F85B
:102DD00004130020BDE8F09F4FF4A276314600F0C6
:102DE0004BF9B1464FF4927A4FF4847B51462068F8
:102DF00000F03DF906465946206800F038F9804653
:102E00004946206800F033F9074648EA0700304396
:102E1000ECD056EA070007D12946206800F0A4F953
:102E2000E87D697E8842E1D80020E8750EB1032074
:102E3000D0E70FB10F20CDE7A97E0120002921683E
:102E400001D00860C5E74860C3E7000028008000A3
:102E50002DE9F05F894604464FF488759A469046FE
:102E600000260068294600F012F94FF4A27739468F
:102E7000206800F00CF92068C0F83495C0F8388557
:102E80002068BAF1000F14D0D0F8001241F02001F0
:102E9000C0F800122179DFF8648008EB4110406827
:102EA00050B120684FF40471C0F804133046BDE8F7
:102EB000F09F01210160EDE7AA46B9464FF4927BED
:102EC0005146206800F0DEF807464946206800F0C9
:102ED000D9F805465946206800F0D4F8014647EA7B
:102EE00005000843ECD02379002208EB4310C2759B
:102EF00001B10326002DD9D00F26D7E72800800086
:102F00002DE9F047054600793F4E904606EB401408
:102F10000F46207F18B10846FFF799FE30B12846CA
:102F200000F074F820B11120BDE8F0871020FBE715
:102F300084F81680A7600027A78228794FF001083F
:102F400006EB40143E46207F0028286825D04FF429
:102F50009079494600F09BF84FF4AC7A51462868C6
:102F600000F095F82868A17DA268C0F84425C0F853
:102F700048152868C0F808806068F0B94946286894
:102F800000F080F880465146286800F07BF858EA47
:102F90000001F3D058BBA7750FE04FF48E7A51466D
:102FA00000F06AF82868C0F808802146286800F018
:102FB00017F961684FF4807089B13046B4E7514623
:102FC000286800F054F810B9A08A4845F7D1A08AC3
:102FD000484505D02146286800F002F900E0814606
:102FE000A08AA17D8842EAD3A08A484501D10F2654
:102FF000D1E75146286800F03AF80028F9D028684F
:10300000C0F80C80C7E70000280080000079044960
:1030100001EB4010807D002800D0012070470000A7
:103020002800800070B541EA4201DDE904564FF006
:10303000A04441EA830141EA052104EB800041EA12
:103040000641C0F8001770BD1CB500220B46009267
:1030500011460192FFF7E6FF1CBD1CB5002100914F
:103060000B46012201911146FFF7DCFF1CBD4058C1
:10307000002800D00120704708B500224250405877
:10308000009008BD4058002800D00120704708B5C6
:10309000002242504058009008BD000003490860DB
:1030A000034801680029FCD07047000004E5014096
:1030B00000E40140094901200860094A0321C2F8DF
:1030C00000124FF0E0220221C2F8001181070860CF
:1030D000D1F800010028FBD070470000FC1F004021
:1030E000001000401349282801D3283801E040F49B
:1030F0008070086010490122C1F80420D1F8000155
:103100000028FBD00023C1F800314A61D1F81C012E
:103110000028FBD0C1F81C310648403000680A6125
:1031200000F07F00D1F81021002AFBD0C1F8103147
:10313000704700000815004000100040F0B57F24E3
:1031400007460025074E07E03846FFF7CBFFA042B1
:1031500000D3204604466D1CF0688542F4D9204611
:10316000F0BD00000000800070B50546C87D0C462B
:1031700000284FF4847128460AD0FFF77DFFD5F868
:103180001805627EE1688854607E401C607670BDE0
:10319000FFF772FFD5F8180570BD10B5044600683A
:1031A0004FF49271FFF768FF4FF484712068FFF7C6
:1031B00063FF20680121016010BD000070B5074D5C
:1031C00028712C7805E07F21204600F0B1F9641CBD
:1031D000E4B268788442F6D970BD00000000800037
:1031E00070B50C4605464FF48E71FFF745FFA18A76
:1031F000A068415CA08A401CA082C5F81C1570BD67
:103200000178022901D0012902D14068FFF778BA7C
:10321000704700007CB50178244D81B301290BD0A3
:1032200002292BD18DF80010C068691C0190012281
:10323000C81DFFF749FD2EE0406801781C48FFF7E4
:1032400089FA1B4C012618B18DF80060019006E048
:10325000A068E168814205D000208DF8000069680F
:1032600068468847A068E168081AA188884207D89C
:103270000E490122491CC81DFFF726FD7CBD01E057
:10328000AE70FBE70A4809491030FFF748FA30B141
:1032900003208DF80000696868468847EEE7034917
:1032A000012201F10800FFF72BFEE7E71000800084
:1032B0004800800070B590B06C462046FFF768FA71
:1032C000002835D16D4604E0641C2046FFF760FA03
:1032D00030B920780D2803D010B1601B4028F3DBF3
:1032E0006C4604224DA12046FEF7C0FF4D4D08B3A9
:1032F00005224DA12046FEF7B9FF002877D0042211
:103300004BA12046FEF7B2FF002871D009224AA146
:103310002046FEF7ABFF00286CD0032249A12046CF
:10332000FEF7A4FF002803D1687980F001006871DE
:1033300010B070BD241D062243A12046FEF796FF63
:10334000D8B1072242A12046FEF790FF18B30C2205
:1033500041A12046FEF78AFF04AE40B30C2242A1F1
:103360002046FEF783FF0028E2D13046FEF78DFFAE
:103370002830A7282EDA02462DE0A01DFEF785FF93
:103380004FF47A71884204DA052800DC0520A86031
:10339000CEE70846FBE7E01DFEF777FF642804DA76
:1033A000012800DC0120E860C2E76420FBE730462A
:1033B000FEF76BFF69782830884201DA024600E0A8
:1033C0000A46002A03DD884202DB084600E00020AE
:1033D0002870ADE7A72229788A4205DDA72804DBFB
:1033E000A72002E003E003E008466870A0E70120A0
:1033F000E8709DE7093404221FA12046FEF736FF3E
:1034000048B105221EA12046FEF730FF00288FD1CB
:10341000FFF7D4FE8CE70120FAE700007365742003
:1034200000000000000080007374617274000000EE
:1034300073746F70000000007363616E20616476C6
:10344000200000006C65640064656C6179200000F8
:1034500072657065617420006368616E6E656C20D2
:103460006D696E20000000006368616E6E656C20FF
:103470006D61782000000000747275650000000026
:1034800066616C736500000070B5214C2079A8B1AD
:103490002A20FFF753FE01462A2000F049F8422077
:1034A000FFF74CFE0146422000F042F87820FFF77B
:1034B00045FE0146782000F03BF80DE0257808E055
:1034C0002846FFF73BFE0146284600F031F86D1C08
:1034D000EDB260788542F3D9FFF7ECFEA07870B1C9
:1034E000A0684FF4FA71884200D208464FF47A710E
:1034F0004843FFF745FB0020A070E078E070A0682B
:10350000BDE870404FF47A714843FFF739BB0000C3
:103510000000800010B5054CE178A278914304D0FA
:10352000FFF7AAF900B10120A07010BD00008000D3
:1035300070B504460D46FF20FFF7ECFF2046FFF76D
:10354000E9FF2846BDE87040FFF7E4BF0100000036
:1035500004000000FF000000FF0000000000000069
:1035600000E0D701FFFFFFFFFFFFFFFFFFFFFFFFAF
:10357000FFFFFFFF00000000000000000000D60178
:103580000701000000404040404040404040414171
:103590004141414040404040404040404040404028
:1035A00040404040400502020202020202020202C2
:1035B00002020202022020202020202020202002BF
:1035C000020202020202909090909090101010104F
:1035D00010101010101010101010101010101010EB
:1035E000020202020202888888888888080808087F
:1035F000080808080808080808080808080808084B
:103600000202020240000000853500003C36000046
:103610000000800028000000BC2600003C360000AE
:103620000000002000100000CC26000064360000DE
:103630002800800040080000CC26000000A7000001
:1036400000010000E803000001000000000000008D
:103650000000000000200040000000000090D003A7
:043660000000000066
:0400000500002211C4
:00000001FF
